{
  "_format": "hh-sol-artifact-1",
  "contractName": "HealthChain",
  "sourceName": "contracts/HealthChain.sol",
  "abi": [
    {
      "inputs": [
        {
          "internalType": "string",
          "name": "ill_id",
          "type": "string"
        },
        {
          "internalType": "string",
          "name": "illnessName",
          "type": "string"
        },
        {
          "internalType": "address",
          "name": "doctor_address",
          "type": "address"
        }
      ],
      "name": "addIllness",
      "outputs": [],
      "stateMutability": "nonpayable",
      "type": "function"
    },
    {
      "inputs": [
        {
          "internalType": "string",
          "name": "name",
          "type": "string"
        },
        {
          "internalType": "string",
          "name": "url",
          "type": "string"
        },
        {
          "internalType": "string",
          "name": "upload_date",
          "type": "string"
        },
        {
          "internalType": "string",
          "name": "ill_id",
          "type": "string"
        }
      ],
      "name": "addRecord",
      "outputs": [],
      "stateMutability": "view",
      "type": "function"
    },
    {
      "inputs": [
        {
          "internalType": "string",
          "name": "name",
          "type": "string"
        },
        {
          "internalType": "uint256",
          "name": "age",
          "type": "uint256"
        },
        {
          "internalType": "string",
          "name": "gender",
          "type": "string"
        },
        {
          "internalType": "string",
          "name": "hospital_name",
          "type": "string"
        }
      ],
      "name": "createDoctor",
      "outputs": [],
      "stateMutability": "nonpayable",
      "type": "function"
    },
    {
      "inputs": [
        {
          "internalType": "string",
          "name": "name",
          "type": "string"
        },
        {
          "internalType": "uint256",
          "name": "age",
          "type": "uint256"
        },
        {
          "internalType": "string",
          "name": "gender",
          "type": "string"
        }
      ],
      "name": "createPatient",
      "outputs": [],
      "stateMutability": "nonpayable",
      "type": "function"
    },
    {
      "inputs": [
        {
          "internalType": "address",
          "name": "",
          "type": "address"
        }
      ],
      "name": "doctors",
      "outputs": [
        {
          "internalType": "string",
          "name": "name",
          "type": "string"
        },
        {
          "internalType": "uint256",
          "name": "age",
          "type": "uint256"
        },
        {
          "internalType": "string",
          "name": "gender",
          "type": "string"
        },
        {
          "internalType": "address",
          "name": "wallet_address",
          "type": "address"
        },
        {
          "internalType": "string",
          "name": "hospital_name",
          "type": "string"
        }
      ],
      "stateMutability": "view",
      "type": "function"
    },
    {
      "inputs": [],
      "name": "getAllPatients",
      "outputs": [
        {
          "components": [
            {
              "internalType": "string",
              "name": "name",
              "type": "string"
            },
            {
              "internalType": "uint256",
              "name": "age",
              "type": "uint256"
            },
            {
              "internalType": "address",
              "name": "wallet_address",
              "type": "address"
            },
            {
              "internalType": "string",
              "name": "gender",
              "type": "string"
            }
          ],
          "internalType": "struct HealthChain.Patient[]",
          "name": "",
          "type": "tuple[]"
        }
      ],
      "stateMutability": "view",
      "type": "function"
    },
    {
      "inputs": [],
      "name": "getDoctor",
      "outputs": [
        {
          "components": [
            {
              "internalType": "string",
              "name": "name",
              "type": "string"
            },
            {
              "internalType": "uint256",
              "name": "age",
              "type": "uint256"
            },
            {
              "internalType": "string",
              "name": "gender",
              "type": "string"
            },
            {
              "internalType": "address",
              "name": "wallet_address",
              "type": "address"
            },
            {
              "internalType": "string",
              "name": "hospital_name",
              "type": "string"
            },
            {
              "internalType": "address[]",
              "name": "patients",
              "type": "address[]"
            }
          ],
          "internalType": "struct HealthChain.Doctor",
          "name": "",
          "type": "tuple"
        }
      ],
      "stateMutability": "view",
      "type": "function"
    },
    {
      "inputs": [],
      "name": "getIllnesses",
      "outputs": [
        {
          "components": [
            {
              "internalType": "string",
              "name": "ill_id",
              "type": "string"
            },
            {
              "internalType": "string",
              "name": "name",
              "type": "string"
            },
            {
              "components": [
                {
                  "internalType": "string",
                  "name": "name",
                  "type": "string"
                },
                {
                  "internalType": "uint256",
                  "name": "age",
                  "type": "uint256"
                },
                {
                  "internalType": "string",
                  "name": "gender",
                  "type": "string"
                },
                {
                  "internalType": "address",
                  "name": "wallet_address",
                  "type": "address"
                },
                {
                  "internalType": "string",
                  "name": "hospital_name",
                  "type": "string"
                },
                {
                  "internalType": "address[]",
                  "name": "patients",
                  "type": "address[]"
                }
              ],
              "internalType": "struct HealthChain.Doctor",
              "name": "doctor",
              "type": "tuple"
            },
            {
              "internalType": "uint256",
              "name": "created_at",
              "type": "uint256"
            }
          ],
          "internalType": "struct HealthChain.IllnessRes[]",
          "name": "",
          "type": "tuple[]"
        }
      ],
      "stateMutability": "view",
      "type": "function"
    },
    {
      "inputs": [],
      "name": "getPatient",
      "outputs": [
        {
          "components": [
            {
              "internalType": "string",
              "name": "name",
              "type": "string"
            },
            {
              "internalType": "uint256",
              "name": "age",
              "type": "uint256"
            },
            {
              "internalType": "address",
              "name": "wallet_address",
              "type": "address"
            },
            {
              "internalType": "string",
              "name": "gender",
              "type": "string"
            }
          ],
          "internalType": "struct HealthChain.Patient",
          "name": "",
          "type": "tuple"
        }
      ],
      "stateMutability": "view",
      "type": "function"
    },
    {
      "inputs": [
        {
          "internalType": "address",
          "name": "patient_address",
          "type": "address"
        }
      ],
      "name": "getPatientsIllness",
      "outputs": [
        {
          "components": [
            {
              "internalType": "string",
              "name": "ill_id",
              "type": "string"
            },
            {
              "internalType": "string",
              "name": "name",
              "type": "string"
            },
            {
              "internalType": "address",
              "name": "doctor",
              "type": "address"
            },
            {
              "internalType": "uint256",
              "name": "created_at",
              "type": "uint256"
            }
          ],
          "internalType": "struct HealthChain.Illness[]",
          "name": "",
          "type": "tuple[]"
        }
      ],
      "stateMutability": "view",
      "type": "function"
    },
    {
      "inputs": [
        {
          "internalType": "string",
          "name": "ill_id",
          "type": "string"
        }
      ],
      "name": "getRecords",
      "outputs": [
        {
          "components": [
            {
              "internalType": "string",
              "name": "name",
              "type": "string"
            },
            {
              "internalType": "string",
              "name": "url",
              "type": "string"
            },
            {
              "internalType": "string",
              "name": "upload_date",
              "type": "string"
            }
          ],
          "internalType": "struct HealthChain.Record[]",
          "name": "",
          "type": "tuple[]"
        }
      ],
      "stateMutability": "view",
      "type": "function"
    },
    {
      "inputs": [],
      "name": "getStatus",
      "outputs": [
        {
          "internalType": "string",
          "name": "",
          "type": "string"
        }
      ],
      "stateMutability": "view",
      "type": "function"
    },
    {
      "inputs": [
        {
          "internalType": "string",
          "name": "",
          "type": "string"
        },
        {
          "internalType": "uint256",
          "name": "",
          "type": "uint256"
        }
      ],
      "name": "illness_record_map",
      "outputs": [
        {
          "internalType": "string",
          "name": "name",
          "type": "string"
        },
        {
          "internalType": "string",
          "name": "url",
          "type": "string"
        },
        {
          "internalType": "string",
          "name": "upload_date",
          "type": "string"
        }
      ],
      "stateMutability": "view",
      "type": "function"
    },
    {
      "inputs": [
        {
          "internalType": "string",
          "name": "",
          "type": "string"
        }
      ],
      "name": "illnuses",
      "outputs": [
        {
          "internalType": "string",
          "name": "ill_id",
          "type": "string"
        },
        {
          "internalType": "string",
          "name": "name",
          "type": "string"
        },
        {
          "internalType": "address",
          "name": "doctor",
          "type": "address"
        },
        {
          "internalType": "uint256",
          "name": "created_at",
          "type": "uint256"
        }
      ],
      "stateMutability": "view",
      "type": "function"
    },
    {
      "inputs": [
        {
          "internalType": "address",
          "name": "",
          "type": "address"
        }
      ],
      "name": "patients",
      "outputs": [
        {
          "internalType": "string",
          "name": "name",
          "type": "string"
        },
        {
          "internalType": "uint256",
          "name": "age",
          "type": "uint256"
        },
        {
          "internalType": "address",
          "name": "wallet_address",
          "type": "address"
        },
        {
          "internalType": "string",
          "name": "gender",
          "type": "string"
        }
      ],
      "stateMutability": "view",
      "type": "function"
    },
    {
      "inputs": [
        {
          "internalType": "address",
          "name": "",
          "type": "address"
        },
        {
          "internalType": "uint256",
          "name": "",
          "type": "uint256"
        }
      ],
      "name": "patients_illness_map",
      "outputs": [
        {
          "internalType": "string",
          "name": "ill_id",
          "type": "string"
        },
        {
          "internalType": "string",
          "name": "name",
          "type": "string"
        },
        {
          "internalType": "address",
          "name": "doctor",
          "type": "address"
        },
        {
          "internalType": "uint256",
          "name": "created_at",
          "type": "uint256"
        }
      ],
      "stateMutability": "view",
      "type": "function"
    },
    {
      "inputs": [
        {
          "internalType": "address",
          "name": "",
          "type": "address"
        }
      ],
      "name": "person_roles",
      "outputs": [
        {
          "internalType": "string",
          "name": "",
          "type": "string"
        }
      ],
      "stateMutability": "view",
      "type": "function"
    }
  ],
  "bytecode": "0x60806040526040518060400160405280600681526020017f446f63746f720000000000000000000000000000000000000000000000000000815250600090816200004a919062000320565b506040518060400160405280600781526020017f50617469656e74000000000000000000000000000000000000000000000000008152506001908162000091919062000320565b503480156200009f57600080fd5b5062000407565b600081519050919050565b7f4e487b7100000000000000000000000000000000000000000000000000000000600052604160045260246000fd5b7f4e487b7100000000000000000000000000000000000000000000000000000000600052602260045260246000fd5b600060028204905060018216806200012857607f821691505b6020821081036200013e576200013d620000e0565b5b50919050565b60008190508160005260206000209050919050565b60006020601f8301049050919050565b600082821b905092915050565b600060088302620001a87fffffffffffffffffffffffffffffffffffffffffffffffffffffffffffffffff8262000169565b620001b4868362000169565b95508019841693508086168417925050509392505050565b6000819050919050565b6000819050919050565b600062000201620001fb620001f584620001cc565b620001d6565b620001cc565b9050919050565b6000819050919050565b6200021d83620001e0565b620002356200022c8262000208565b84845462000176565b825550505050565b600090565b6200024c6200023d565b6200025981848462000212565b505050565b5b8181101562000281576200027560008262000242565b6001810190506200025f565b5050565b601f821115620002d0576200029a8162000144565b620002a58462000159565b81016020851015620002b5578190505b620002cd620002c48562000159565b8301826200025e565b50505b505050565b600082821c905092915050565b6000620002f560001984600802620002d5565b1980831691505092915050565b6000620003108383620002e2565b9150826002028217905092915050565b6200032b82620000a6565b67ffffffffffffffff811115620003475762000346620000b1565b5b6200035382546200010f565b6200036082828562000285565b600060209050601f83116001811462000398576000841562000383578287015190505b6200038f858262000302565b865550620003ff565b601f198416620003a88662000144565b60005b82811015620003d257848901518255600182019150602085019450602081019050620003ab565b86831015620003f25784890151620003ee601f891682620002e2565b8355505b6001600288020188555050505b505050505050565b614a3c80620004176000396000f3fe608060405234801561001057600080fd5b506004361061010b5760003560e01c80637b0f9a36116100a2578063aa573e3e11610071578063aa573e3e146102ef578063c5c1a46d1461030b578063c9adb85d1461033b578063cc095b3c14610359578063f64db3fa146103755761010b565b80637b0f9a361461025157806386e80b711461026f57806397fd28b31461029f578063a9583c22146102bb5761010b565b80633aaa5920116100de5780633aaa5920146101c65780633b56cb65146101e45780634e69d5601461020057806369cd495e1461021e5761010b565b80630869cfbc1461011057806311349d1c1461014357806318a231a91461017557806339c0452c14610193575b600080fd5b61012a60048036038101906101259190613431565b6103a5565b60405161013a9493929190613516565b60405180910390f35b61015d600480360381019061015891906136ca565b610505565b60405161016c93929190613726565b60405180910390f35b61017d6106fa565b60405161018a9190613906565b60405180910390f35b6101ad60048036038101906101a89190613928565b610c81565b6040516101bd9493929190613968565b60405180910390f35b6101ce610dfe565b6040516101db9190613b08565b60405180910390f35b6101fe60048036038101906101f99190613b2a565b6110f9565b005b6102086112a6565b6040516102159190613be5565b60405180910390f35b61023860048036038101906102339190613c07565b611466565b6040516102489493929190613968565b60405180910390f35b6102596115dc565b6040516102669190613cba565b60405180910390f35b61028960048036038101906102849190613c07565b6117b7565b6040516102969190613dfc565b60405180910390f35b6102b960048036038101906102b49190613e1e565b6119ea565b005b6102d560048036038101906102d09190613431565b611d22565b6040516102e6959493929190613ef5565b60405180910390f35b61030960048036038101906103049190613f5d565b611f10565b005b61032560048036038101906103209190613431565b612080565b6040516103329190614114565b60405180910390f35b6103436122a2565b6040516103509190614307565b60405180910390f35b610373600480360381019061036e9190614329565b612934565b005b61038f600480360381019061038a9190613431565b613161565b60405161039c9190613be5565b60405180910390f35b60026020528060005260406000206000915090508060000180546103c8906143e3565b80601f01602080910402602001604051908101604052809291908181526020018280546103f4906143e3565b80156104415780601f1061041657610100808354040283529160200191610441565b820191906000526020600020905b81548152906001019060200180831161042457829003601f168201915b5050505050908060010154908060020160009054906101000a900473ffffffffffffffffffffffffffffffffffffffff1690806003018054610482906143e3565b80601f01602080910402602001604051908101604052809291908181526020018280546104ae906143e3565b80156104fb5780601f106104d0576101008083540402835291602001916104fb565b820191906000526020600020905b8154815290600101906020018083116104de57829003601f168201915b5050505050905084565b600682805160208101820180518482526020830160208501208183528095505050505050818154811061053757600080fd5b90600052602060002090600302016000915091505080600001805461055b906143e3565b80601f0160208091040260200160405190810160405280929190818152602001828054610587906143e3565b80156105d45780601f106105a9576101008083540402835291602001916105d4565b820191906000526020600020905b8154815290600101906020018083116105b757829003601f168201915b5050505050908060010180546105e9906143e3565b80601f0160208091040260200160405190810160405280929190818152602001828054610615906143e3565b80156106625780601f1061063757610100808354040283529160200191610662565b820191906000526020600020905b81548152906001019060200180831161064557829003601f168201915b505050505090806002018054610677906143e3565b80601f01602080910402602001604051908101604052809291908181526020018280546106a3906143e3565b80156106f05780601f106106c5576101008083540402835291602001916106f0565b820191906000526020600020905b8154815290600101906020018083116106d357829003601f168201915b5050505050905083565b60606000600360003373ffffffffffffffffffffffffffffffffffffffff1673ffffffffffffffffffffffffffffffffffffffff1681526020019081526020016000206040518060c0016040529081600082018054610758906143e3565b80601f0160208091040260200160405190810160405280929190818152602001828054610784906143e3565b80156107d15780601f106107a6576101008083540402835291602001916107d1565b820191906000526020600020905b8154815290600101906020018083116107b457829003601f168201915b50505050508152602001600182015481526020016002820180546107f4906143e3565b80601f0160208091040260200160405190810160405280929190818152602001828054610820906143e3565b801561086d5780601f106108425761010080835404028352916020019161086d565b820191906000526020600020905b81548152906001019060200180831161085057829003601f168201915b505050505081526020016003820160009054906101000a900473ffffffffffffffffffffffffffffffffffffffff1673ffffffffffffffffffffffffffffffffffffffff1673ffffffffffffffffffffffffffffffffffffffff1681526020016004820180546108dc906143e3565b80601f0160208091040260200160405190810160405280929190818152602001828054610908906143e3565b80156109555780601f1061092a57610100808354040283529160200191610955565b820191906000526020600020905b81548152906001019060200180831161093857829003601f168201915b50505050508152602001600582018054806020026020016040519081016040528092919081815260200182805480156109e357602002820191906000526020600020905b8160009054906101000a900473ffffffffffffffffffffffffffffffffffffffff1673ffffffffffffffffffffffffffffffffffffffff1681526020019060010190808311610999575b505050505081525050905060008160a001515167ffffffffffffffff811115610a0f57610a0e613573565b5b604051908082528060200260200182016040528015610a4857816020015b610a35613201565b815260200190600190039081610a2d5790505b50905060005b8260a0015151811015610c7857600260008460a001518381518110610a7657610a75614414565b5b602002602001015173ffffffffffffffffffffffffffffffffffffffff1673ffffffffffffffffffffffffffffffffffffffff168152602001908152602001600020604051806080016040529081600082018054610ad3906143e3565b80601f0160208091040260200160405190810160405280929190818152602001828054610aff906143e3565b8015610b4c5780601f10610b2157610100808354040283529160200191610b4c565b820191906000526020600020905b815481529060010190602001808311610b2f57829003601f168201915b50505050508152602001600182015481526020016002820160009054906101000a900473ffffffffffffffffffffffffffffffffffffffff1673ffffffffffffffffffffffffffffffffffffffff1673ffffffffffffffffffffffffffffffffffffffff168152602001600382018054610bc5906143e3565b80601f0160208091040260200160405190810160405280929190818152602001828054610bf1906143e3565b8015610c3e5780601f10610c1357610100808354040283529160200191610c3e565b820191906000526020600020905b815481529060010190602001808311610c2157829003601f168201915b505050505081525050828281518110610c5a57610c59614414565b5b60200260200101819052508080610c7090614472565b915050610a4e565b50809250505090565b60056020528160005260406000208181548110610c9d57600080fd5b906000526020600020906004020160009150915050806000018054610cc1906143e3565b80601f0160208091040260200160405190810160405280929190818152602001828054610ced906143e3565b8015610d3a5780601f10610d0f57610100808354040283529160200191610d3a565b820191906000526020600020905b815481529060010190602001808311610d1d57829003601f168201915b505050505090806001018054610d4f906143e3565b80601f0160208091040260200160405190810160405280929190818152602001828054610d7b906143e3565b8015610dc85780601f10610d9d57610100808354040283529160200191610dc8565b820191906000526020600020905b815481529060010190602001808311610dab57829003601f168201915b5050505050908060020160009054906101000a900473ffffffffffffffffffffffffffffffffffffffff16908060030154905084565b610e0661323f565b600360003373ffffffffffffffffffffffffffffffffffffffff1673ffffffffffffffffffffffffffffffffffffffff1681526020019081526020016000206040518060c0016040529081600082018054610e60906143e3565b80601f0160208091040260200160405190810160405280929190818152602001828054610e8c906143e3565b8015610ed95780601f10610eae57610100808354040283529160200191610ed9565b820191906000526020600020905b815481529060010190602001808311610ebc57829003601f168201915b5050505050815260200160018201548152602001600282018054610efc906143e3565b80601f0160208091040260200160405190810160405280929190818152602001828054610f28906143e3565b8015610f755780601f10610f4a57610100808354040283529160200191610f75565b820191906000526020600020905b815481529060010190602001808311610f5857829003601f168201915b505050505081526020016003820160009054906101000a900473ffffffffffffffffffffffffffffffffffffffff1673ffffffffffffffffffffffffffffffffffffffff1673ffffffffffffffffffffffffffffffffffffffff168152602001600482018054610fe4906143e3565b80601f0160208091040260200160405190810160405280929190818152602001828054611010906143e3565b801561105d5780601f106110325761010080835404028352916020019161105d565b820191906000526020600020905b81548152906001019060200180831161104057829003601f168201915b50505050508152602001600582018054806020026020016040519081016040528092919081815260200182805480156110eb57602002820191906000526020600020905b8160009054906101000a900473ffffffffffffffffffffffffffffffffffffffff1673ffffffffffffffffffffffffffffffffffffffff16815260200190600101908083116110a1575b505050505081525050905090565b61110161323f565b84816000018190525033816060019073ffffffffffffffffffffffffffffffffffffffff16908173ffffffffffffffffffffffffffffffffffffffff16815250508381602001818152505082816040018190525081816080018190525080600360003373ffffffffffffffffffffffffffffffffffffffff1673ffffffffffffffffffffffffffffffffffffffff16815260200190815260200160002060008201518160000190816111b39190614666565b506020820151816001015560408201518160020190816111d39190614666565b5060608201518160030160006101000a81548173ffffffffffffffffffffffffffffffffffffffff021916908373ffffffffffffffffffffffffffffffffffffffff16021790555060808201518160040190816112309190614666565b5060a082015181600501908051906020019061124d92919061328b565b509050506000600760003373ffffffffffffffffffffffffffffffffffffffff1673ffffffffffffffffffffffffffffffffffffffff168152602001908152602001600020908161129e9190614763565b505050505050565b60606000600760003373ffffffffffffffffffffffffffffffffffffffff1673ffffffffffffffffffffffffffffffffffffffff168152602001908152602001600020905060006040516020016112fd91906148d9565b60405160208183030381529060405280519060200120816040516020016113249190614973565b6040516020818303038152906040528051906020012014806113925750600160405160200161135391906148d9565b604051602081830303815290604052805190602001208160405160200161137a9190614973565b60405160208183030381529060405280519060200120145b15611429578080546113a3906143e3565b80601f01602080910402602001604051908101604052809291908181526020018280546113cf906143e3565b801561141c5780601f106113f15761010080835404028352916020019161141c565b820191906000526020600020905b8154815290600101906020018083116113ff57829003601f168201915b5050505050915050611463565b6040518060400160405280600c81526020017f556e7265676973746572656400000000000000000000000000000000000000008152509150505b90565b60048180516020810182018051848252602083016020850120818352809550505050505060009150905080600001805461149f906143e3565b80601f01602080910402602001604051908101604052809291908181526020018280546114cb906143e3565b80156115185780601f106114ed57610100808354040283529160200191611518565b820191906000526020600020905b8154815290600101906020018083116114fb57829003601f168201915b50505050509080600101805461152d906143e3565b80601f0160208091040260200160405190810160405280929190818152602001828054611559906143e3565b80156115a65780601f1061157b576101008083540402835291602001916115a6565b820191906000526020600020905b81548152906001019060200180831161158957829003601f168201915b5050505050908060020160009054906101000a900473ffffffffffffffffffffffffffffffffffffffff16908060030154905084565b6115e4613201565b600260003373ffffffffffffffffffffffffffffffffffffffff1673ffffffffffffffffffffffffffffffffffffffff16815260200190815260200160002060405180608001604052908160008201805461163e906143e3565b80601f016020809104026020016040519081016040528092919081815260200182805461166a906143e3565b80156116b75780601f1061168c576101008083540402835291602001916116b7565b820191906000526020600020905b81548152906001019060200180831161169a57829003601f168201915b50505050508152602001600182015481526020016002820160009054906101000a900473ffffffffffffffffffffffffffffffffffffffff1673ffffffffffffffffffffffffffffffffffffffff1673ffffffffffffffffffffffffffffffffffffffff168152602001600382018054611730906143e3565b80601f016020809104026020016040519081016040528092919081815260200182805461175c906143e3565b80156117a95780601f1061177e576101008083540402835291602001916117a9565b820191906000526020600020905b81548152906001019060200180831161178c57829003601f168201915b505050505081525050905090565b60606006826040516117c991906149bb565b9081526020016040518091039020805480602002602001604051908101604052809291908181526020016000905b828210156119df578382906000526020600020906003020160405180606001604052908160008201805461182a906143e3565b80601f0160208091040260200160405190810160405280929190818152602001828054611856906143e3565b80156118a35780601f10611878576101008083540402835291602001916118a3565b820191906000526020600020905b81548152906001019060200180831161188657829003601f168201915b505050505081526020016001820180546118bc906143e3565b80601f01602080910402602001604051908101604052809291908181526020018280546118e8906143e3565b80156119355780601f1061190a57610100808354040283529160200191611935565b820191906000526020600020905b81548152906001019060200180831161191857829003601f168201915b5050505050815260200160028201805461194e906143e3565b80601f016020809104026020016040519081016040528092919081815260200182805461197a906143e3565b80156119c75780601f1061199c576101008083540402835291602001916119c7565b820191906000526020600020905b8154815290600101906020018083116119aa57829003601f168201915b505050505081525050815260200190600101906117f7565b505050509050919050565b6119f2613315565b8481600001819052508381602001819052508281604001819052506000600683604051611a1f91906149bb565b9081526020016040518091039020805480602002602001604051908101604052809291908181526020016000905b82821015611c355783829060005260206000209060030201604051806060016040529081600082018054611a80906143e3565b80601f0160208091040260200160405190810160405280929190818152602001828054611aac906143e3565b8015611af95780601f10611ace57610100808354040283529160200191611af9565b820191906000526020600020905b815481529060010190602001808311611adc57829003601f168201915b50505050508152602001600182018054611b12906143e3565b80601f0160208091040260200160405190810160405280929190818152602001828054611b3e906143e3565b8015611b8b5780601f10611b6057610100808354040283529160200191611b8b565b820191906000526020600020905b815481529060010190602001808311611b6e57829003601f168201915b50505050508152602001600282018054611ba4906143e3565b80601f0160208091040260200160405190810160405280929190818152602001828054611bd0906143e3565b8015611c1d5780601f10611bf257610100808354040283529160200191611c1d565b820191906000526020600020905b815481529060010190602001808311611c0057829003601f168201915b50505050508152505081526020019060010190611a4d565b505050509050600060018251611c4b91906149d2565b67ffffffffffffffff811115611c6457611c63613573565b5b604051908082528060200260200182016040528015611c9d57816020015b611c8a613315565b815260200190600190039081611c825790505b50905060005b8251811015611cf857828181518110611cbf57611cbe614414565b5b6020026020010151828281518110611cda57611cd9614414565b5b60200260200101819052508080611cf090614472565b915050611ca3565b508281835181518110611d0e57611d0d614414565b5b602002602001018190525050505050505050565b6003602052806000526040600020600091509050806000018054611d45906143e3565b80601f0160208091040260200160405190810160405280929190818152602001828054611d71906143e3565b8015611dbe5780601f10611d9357610100808354040283529160200191611dbe565b820191906000526020600020905b815481529060010190602001808311611da157829003601f168201915b505050505090806001015490806002018054611dd9906143e3565b80601f0160208091040260200160405190810160405280929190818152602001828054611e05906143e3565b8015611e525780601f10611e2757610100808354040283529160200191611e52565b820191906000526020600020905b815481529060010190602001808311611e3557829003601f168201915b5050505050908060030160009054906101000a900473ffffffffffffffffffffffffffffffffffffffff1690806004018054611e8d906143e3565b80601f0160208091040260200160405190810160405280929190818152602001828054611eb9906143e3565b8015611f065780601f10611edb57610100808354040283529160200191611f06565b820191906000526020600020905b815481529060010190602001808311611ee957829003601f168201915b5050505050905085565b611f18613201565b8381600001819052508281602001818152505033816040019073ffffffffffffffffffffffffffffffffffffffff16908173ffffffffffffffffffffffffffffffffffffffff168152505081816060018190525080600260003373ffffffffffffffffffffffffffffffffffffffff1673ffffffffffffffffffffffffffffffffffffffff1681526020019081526020016000206000820151816000019081611fc19190614666565b506020820151816001015560408201518160020160006101000a81548173ffffffffffffffffffffffffffffffffffffffff021916908373ffffffffffffffffffffffffffffffffffffffff16021790555060608201518160030190816120289190614666565b509050506001600760003373ffffffffffffffffffffffffffffffffffffffff1673ffffffffffffffffffffffffffffffffffffffff16815260200190815260200160002090816120799190614763565b5050505050565b6060600560008373ffffffffffffffffffffffffffffffffffffffff1673ffffffffffffffffffffffffffffffffffffffff168152602001908152602001600020805480602002602001604051908101604052809291908181526020016000905b828210156122975783829060005260206000209060040201604051806080016040529081600082018054612114906143e3565b80601f0160208091040260200160405190810160405280929190818152602001828054612140906143e3565b801561218d5780601f106121625761010080835404028352916020019161218d565b820191906000526020600020905b81548152906001019060200180831161217057829003601f168201915b505050505081526020016001820180546121a6906143e3565b80601f01602080910402602001604051908101604052809291908181526020018280546121d2906143e3565b801561221f5780601f106121f45761010080835404028352916020019161221f565b820191906000526020600020905b81548152906001019060200180831161220257829003601f168201915b505050505081526020016002820160009054906101000a900473ffffffffffffffffffffffffffffffffffffffff1673ffffffffffffffffffffffffffffffffffffffff1673ffffffffffffffffffffffffffffffffffffffff168152602001600382015481525050815260200190600101906120e1565b505050509050919050565b60606000600560003373ffffffffffffffffffffffffffffffffffffffff1673ffffffffffffffffffffffffffffffffffffffff168152602001908152602001600020805480602002602001604051908101604052809291908181526020016000905b828210156124bb5783829060005260206000209060040201604051806080016040529081600082018054612338906143e3565b80601f0160208091040260200160405190810160405280929190818152602001828054612364906143e3565b80156123b15780601f10612386576101008083540402835291602001916123b1565b820191906000526020600020905b81548152906001019060200180831161239457829003601f168201915b505050505081526020016001820180546123ca906143e3565b80601f01602080910402602001604051908101604052809291908181526020018280546123f6906143e3565b80156124435780601f1061241857610100808354040283529160200191612443565b820191906000526020600020905b81548152906001019060200180831161242657829003601f168201915b505050505081526020016002820160009054906101000a900473ffffffffffffffffffffffffffffffffffffffff1673ffffffffffffffffffffffffffffffffffffffff1673ffffffffffffffffffffffffffffffffffffffff16815260200160038201548152505081526020019060010190612305565b5050505090506000815167ffffffffffffffff8111156124de576124dd613573565b5b60405190808252806020026020018201604052801561251757816020015b612504613336565b8152602001906001900390816124fc5790505b50905060005b825181101561292b5782818151811061253957612538614414565b5b60200260200101516000015182828151811061255857612557614414565b5b60200260200101516000018190525082818151811061257a57612579614414565b5b60200260200101516020015182828151811061259957612598614414565b5b6020026020010151602001819052508281815181106125bb576125ba614414565b5b6020026020010151606001518282815181106125da576125d9614414565b5b602002602001015160600181815250506003600084838151811061260157612600614414565b5b60200260200101516040015173ffffffffffffffffffffffffffffffffffffffff1673ffffffffffffffffffffffffffffffffffffffff1681526020019081526020016000206040518060c0016040529081600082018054612662906143e3565b80601f016020809104026020016040519081016040528092919081815260200182805461268e906143e3565b80156126db5780601f106126b0576101008083540402835291602001916126db565b820191906000526020600020905b8154815290600101906020018083116126be57829003601f168201915b50505050508152602001600182015481526020016002820180546126fe906143e3565b80601f016020809104026020016040519081016040528092919081815260200182805461272a906143e3565b80156127775780601f1061274c57610100808354040283529160200191612777565b820191906000526020600020905b81548152906001019060200180831161275a57829003601f168201915b505050505081526020016003820160009054906101000a900473ffffffffffffffffffffffffffffffffffffffff1673ffffffffffffffffffffffffffffffffffffffff1673ffffffffffffffffffffffffffffffffffffffff1681526020016004820180546127e6906143e3565b80601f0160208091040260200160405190810160405280929190818152602001828054612812906143e3565b801561285f5780601f106128345761010080835404028352916020019161285f565b820191906000526020600020905b81548152906001019060200180831161284257829003601f168201915b50505050508152602001600582018054806020026020016040519081016040528092919081815260200182805480156128ed57602002820191906000526020600020905b8160009054906101000a900473ffffffffffffffffffffffffffffffffffffffff1673ffffffffffffffffffffffffffffffffffffffff16815260200190600101908083116128a3575b50505050508152505082828151811061290957612908614414565b5b602002602001015160400181905250808061292390614472565b91505061251d565b50809250505090565b61293c613364565b83816000018190525082816020018190525081816040019073ffffffffffffffffffffffffffffffffffffffff16908173ffffffffffffffffffffffffffffffffffffffff16815250506000600360008473ffffffffffffffffffffffffffffffffffffffff1673ffffffffffffffffffffffffffffffffffffffff1681526020019081526020016000206040518060c00160405290816000820180546129e2906143e3565b80601f0160208091040260200160405190810160405280929190818152602001828054612a0e906143e3565b8015612a5b5780601f10612a3057610100808354040283529160200191612a5b565b820191906000526020600020905b815481529060010190602001808311612a3e57829003601f168201915b5050505050815260200160018201548152602001600282018054612a7e906143e3565b80601f0160208091040260200160405190810160405280929190818152602001828054612aaa906143e3565b8015612af75780601f10612acc57610100808354040283529160200191612af7565b820191906000526020600020905b815481529060010190602001808311612ada57829003601f168201915b505050505081526020016003820160009054906101000a900473ffffffffffffffffffffffffffffffffffffffff1673ffffffffffffffffffffffffffffffffffffffff1673ffffffffffffffffffffffffffffffffffffffff168152602001600482018054612b66906143e3565b80601f0160208091040260200160405190810160405280929190818152602001828054612b92906143e3565b8015612bdf5780601f10612bb457610100808354040283529160200191612bdf565b820191906000526020600020905b815481529060010190602001808311612bc257829003601f168201915b5050505050815260200160058201805480602002602001604051908101604052809291908181526020018280548015612c6d57602002820191906000526020600020905b8160009054906101000a900473ffffffffffffffffffffffffffffffffffffffff1673ffffffffffffffffffffffffffffffffffffffff1681526020019060010190808311612c23575b505050505081525050905060008160a001519050600060018251612c9191906149d2565b67ffffffffffffffff811115612caa57612ca9613573565b5b604051908082528060200260200182016040528015612cd85781602001602082028036833780820191505090505b50905060005b8251811015612d6257828181518110612cfa57612cf9614414565b5b6020026020010151828281518110612d1557612d14614414565b5b602002602001019073ffffffffffffffffffffffffffffffffffffffff16908173ffffffffffffffffffffffffffffffffffffffff16815250508080612d5a90614472565b915050612cde565b503381835181518110612d7857612d77614414565b5b602002602001019073ffffffffffffffffffffffffffffffffffffffff16908173ffffffffffffffffffffffffffffffffffffffff16815250504284606001818152505083600488604051612dcd91906149bb565b90815260200160405180910390206000820151816000019081612df09190614666565b506020820151816001019081612e069190614666565b5060408201518160020160006101000a81548173ffffffffffffffffffffffffffffffffffffffff021916908373ffffffffffffffffffffffffffffffffffffffff160217905550606082015181600301559050506000600560003373ffffffffffffffffffffffffffffffffffffffff1673ffffffffffffffffffffffffffffffffffffffff168152602001908152602001600020805480602002602001604051908101604052809291908181526020016000905b828210156130725783829060005260206000209060040201604051806080016040529081600082018054612eef906143e3565b80601f0160208091040260200160405190810160405280929190818152602001828054612f1b906143e3565b8015612f685780601f10612f3d57610100808354040283529160200191612f68565b820191906000526020600020905b815481529060010190602001808311612f4b57829003601f168201915b50505050508152602001600182018054612f81906143e3565b80601f0160208091040260200160405190810160405280929190818152602001828054612fad906143e3565b8015612ffa5780601f10612fcf57610100808354040283529160200191612ffa565b820191906000526020600020905b815481529060010190602001808311612fdd57829003601f168201915b505050505081526020016002820160009054906101000a900473ffffffffffffffffffffffffffffffffffffffff1673ffffffffffffffffffffffffffffffffffffffff1673ffffffffffffffffffffffffffffffffffffffff16815260200160038201548152505081526020019060010190612ebc565b50505050905060006001825161308891906149d2565b67ffffffffffffffff8111156130a1576130a0613573565b5b6040519080825280602002602001820160405280156130da57816020015b6130c7613364565b8152602001906001900390816130bf5790505b50905060005b8251811015613135578281815181106130fc576130fb614414565b5b602002602001015182828151811061311757613116614414565b5b6020026020010181905250808061312d90614472565b9150506130e0565b50858183518151811061314b5761314a614414565b5b6020026020010181905250505050505050505050565b60076020528060005260406000206000915090508054613180906143e3565b80601f01602080910402602001604051908101604052809291908181526020018280546131ac906143e3565b80156131f95780601f106131ce576101008083540402835291602001916131f9565b820191906000526020600020905b8154815290600101906020018083116131dc57829003601f168201915b505050505081565b60405180608001604052806060815260200160008152602001600073ffffffffffffffffffffffffffffffffffffffff168152602001606081525090565b6040518060c00160405280606081526020016000815260200160608152602001600073ffffffffffffffffffffffffffffffffffffffff16815260200160608152602001606081525090565b828054828255906000526020600020908101928215613304579160200282015b828111156133035782518260006101000a81548173ffffffffffffffffffffffffffffffffffffffff021916908373ffffffffffffffffffffffffffffffffffffffff160217905550916020019190600101906132ab565b5b50905061331191906133a2565b5090565b60405180606001604052806060815260200160608152602001606081525090565b6040518060800160405280606081526020016060815260200161335761323f565b8152602001600081525090565b60405180608001604052806060815260200160608152602001600073ffffffffffffffffffffffffffffffffffffffff168152602001600081525090565b5b808211156133bb5760008160009055506001016133a3565b5090565b6000604051905090565b600080fd5b600080fd5b600073ffffffffffffffffffffffffffffffffffffffff82169050919050565b60006133fe826133d3565b9050919050565b61340e816133f3565b811461341957600080fd5b50565b60008135905061342b81613405565b92915050565b600060208284031215613447576134466133c9565b5b60006134558482850161341c565b91505092915050565b600081519050919050565b600082825260208201905092915050565b60005b8381101561349857808201518184015260208101905061347d565b60008484015250505050565b6000601f19601f8301169050919050565b60006134c08261345e565b6134ca8185613469565b93506134da81856020860161347a565b6134e3816134a4565b840191505092915050565b6000819050919050565b613501816134ee565b82525050565b613510816133f3565b82525050565b6000608082019050818103600083015261353081876134b5565b905061353f60208301866134f8565b61354c6040830185613507565b818103606083015261355e81846134b5565b905095945050505050565b600080fd5b600080fd5b7f4e487b7100000000000000000000000000000000000000000000000000000000600052604160045260246000fd5b6135ab826134a4565b810181811067ffffffffffffffff821117156135ca576135c9613573565b5b80604052505050565b60006135dd6133bf565b90506135e982826135a2565b919050565b600067ffffffffffffffff82111561360957613608613573565b5b613612826134a4565b9050602081019050919050565b82818337600083830152505050565b600061364161363c846135ee565b6135d3565b90508281526020810184848401111561365d5761365c61356e565b5b61366884828561361f565b509392505050565b600082601f83011261368557613684613569565b5b813561369584826020860161362e565b91505092915050565b6136a7816134ee565b81146136b257600080fd5b50565b6000813590506136c48161369e565b92915050565b600080604083850312156136e1576136e06133c9565b5b600083013567ffffffffffffffff8111156136ff576136fe6133ce565b5b61370b85828601613670565b925050602061371c858286016136b5565b9150509250929050565b6000606082019050818103600083015261374081866134b5565b9050818103602083015261375481856134b5565b9050818103604083015261376881846134b5565b9050949350505050565b600081519050919050565b600082825260208201905092915050565b6000819050602082019050919050565b600082825260208201905092915050565b60006137ba8261345e565b6137c4818561379e565b93506137d481856020860161347a565b6137dd816134a4565b840191505092915050565b6137f1816134ee565b82525050565b613800816133f3565b82525050565b6000608083016000830151848203600086015261382382826137af565b915050602083015161383860208601826137e8565b50604083015161384b60408601826137f7565b506060830151848203606086015261386382826137af565b9150508091505092915050565b600061387c8383613806565b905092915050565b6000602082019050919050565b600061389c82613772565b6138a6818561377d565b9350836020820285016138b88561378e565b8060005b858110156138f457848403895281516138d58582613870565b94506138e083613884565b925060208a019950506001810190506138bc565b50829750879550505050505092915050565b600060208201905081810360008301526139208184613891565b905092915050565b6000806040838503121561393f5761393e6133c9565b5b600061394d8582860161341c565b925050602061395e858286016136b5565b9150509250929050565b6000608082019050818103600083015261398281876134b5565b9050818103602083015261399681866134b5565b90506139a56040830185613507565b6139b260608301846134f8565b95945050505050565b600081519050919050565b600082825260208201905092915050565b6000819050602082019050919050565b60006139f383836137f7565b60208301905092915050565b6000602082019050919050565b6000613a17826139bb565b613a2181856139c6565b9350613a2c836139d7565b8060005b83811015613a5d578151613a4488826139e7565b9750613a4f836139ff565b925050600181019050613a30565b5085935050505092915050565b600060c0830160008301518482036000860152613a8782826137af565b9150506020830151613a9c60208601826137e8565b5060408301518482036040860152613ab482826137af565b9150506060830151613ac960608601826137f7565b5060808301518482036080860152613ae182826137af565b91505060a083015184820360a0860152613afb8282613a0c565b9150508091505092915050565b60006020820190508181036000830152613b228184613a6a565b905092915050565b60008060008060808587031215613b4457613b436133c9565b5b600085013567ffffffffffffffff811115613b6257613b616133ce565b5b613b6e87828801613670565b9450506020613b7f878288016136b5565b935050604085013567ffffffffffffffff811115613ba057613b9f6133ce565b5b613bac87828801613670565b925050606085013567ffffffffffffffff811115613bcd57613bcc6133ce565b5b613bd987828801613670565b91505092959194509250565b60006020820190508181036000830152613bff81846134b5565b905092915050565b600060208284031215613c1d57613c1c6133c9565b5b600082013567ffffffffffffffff811115613c3b57613c3a6133ce565b5b613c4784828501613670565b91505092915050565b60006080830160008301518482036000860152613c6d82826137af565b9150506020830151613c8260208601826137e8565b506040830151613c9560408601826137f7565b5060608301518482036060860152613cad82826137af565b9150508091505092915050565b60006020820190508181036000830152613cd48184613c50565b905092915050565b600081519050919050565b600082825260208201905092915050565b6000819050602082019050919050565b60006060830160008301518482036000860152613d2582826137af565b91505060208301518482036020860152613d3f82826137af565b91505060408301518482036040860152613d5982826137af565b9150508091505092915050565b6000613d728383613d08565b905092915050565b6000602082019050919050565b6000613d9282613cdc565b613d9c8185613ce7565b935083602082028501613dae85613cf8565b8060005b85811015613dea5784840389528151613dcb8582613d66565b9450613dd683613d7a565b925060208a01995050600181019050613db2565b50829750879550505050505092915050565b60006020820190508181036000830152613e168184613d87565b905092915050565b60008060008060808587031215613e3857613e376133c9565b5b600085013567ffffffffffffffff811115613e5657613e556133ce565b5b613e6287828801613670565b945050602085013567ffffffffffffffff811115613e8357613e826133ce565b5b613e8f87828801613670565b935050604085013567ffffffffffffffff811115613eb057613eaf6133ce565b5b613ebc87828801613670565b925050606085013567ffffffffffffffff811115613edd57613edc6133ce565b5b613ee987828801613670565b91505092959194509250565b600060a0820190508181036000830152613f0f81886134b5565b9050613f1e60208301876134f8565b8181036040830152613f3081866134b5565b9050613f3f6060830185613507565b8181036080830152613f5181846134b5565b90509695505050505050565b600080600060608486031215613f7657613f756133c9565b5b600084013567ffffffffffffffff811115613f9457613f936133ce565b5b613fa086828701613670565b9350506020613fb1868287016136b5565b925050604084013567ffffffffffffffff811115613fd257613fd16133ce565b5b613fde86828701613670565b9150509250925092565b600081519050919050565b600082825260208201905092915050565b6000819050602082019050919050565b6000608083016000830151848203600086015261403182826137af565b9150506020830151848203602086015261404b82826137af565b915050604083015161406060408601826137f7565b50606083015161407360608601826137e8565b508091505092915050565b600061408a8383614014565b905092915050565b6000602082019050919050565b60006140aa82613fe8565b6140b48185613ff3565b9350836020820285016140c685614004565b8060005b8581101561410257848403895281516140e3858261407e565b94506140ee83614092565b925060208a019950506001810190506140ca565b50829750879550505050505092915050565b6000602082019050818103600083015261412e818461409f565b905092915050565b600081519050919050565b600082825260208201905092915050565b6000819050602082019050919050565b600060c083016000830151848203600086015261417f82826137af565b915050602083015161419460208601826137e8565b50604083015184820360408601526141ac82826137af565b91505060608301516141c160608601826137f7565b50608083015184820360808601526141d982826137af565b91505060a083015184820360a08601526141f38282613a0c565b9150508091505092915050565b6000608083016000830151848203600086015261421d82826137af565b9150506020830151848203602086015261423782826137af565b915050604083015184820360408601526142518282614162565b915050606083015161426660608601826137e8565b508091505092915050565b600061427d8383614200565b905092915050565b6000602082019050919050565b600061429d82614136565b6142a78185614141565b9350836020820285016142b985614152565b8060005b858110156142f557848403895281516142d68582614271565b94506142e183614285565b925060208a019950506001810190506142bd565b50829750879550505050505092915050565b600060208201905081810360008301526143218184614292565b905092915050565b600080600060608486031215614342576143416133c9565b5b600084013567ffffffffffffffff8111156143605761435f6133ce565b5b61436c86828701613670565b935050602084013567ffffffffffffffff81111561438d5761438c6133ce565b5b61439986828701613670565b92505060406143aa8682870161341c565b9150509250925092565b7f4e487b7100000000000000000000000000000000000000000000000000000000600052602260045260246000fd5b600060028204905060018216806143fb57607f821691505b60208210810361440e5761440d6143b4565b5b50919050565b7f4e487b7100000000000000000000000000000000000000000000000000000000600052603260045260246000fd5b7f4e487b7100000000000000000000000000000000000000000000000000000000600052601160045260246000fd5b600061447d826134ee565b91507fffffffffffffffffffffffffffffffffffffffffffffffffffffffffffffffff82036144af576144ae614443565b5b600182019050919050565b60008190508160005260206000209050919050565b60006020601f8301049050919050565b600082821b905092915050565b60006008830261451c7fffffffffffffffffffffffffffffffffffffffffffffffffffffffffffffffff826144df565b61452686836144df565b95508019841693508086168417925050509392505050565b6000819050919050565b600061456361455e614559846134ee565b61453e565b6134ee565b9050919050565b6000819050919050565b61457d83614548565b6145916145898261456a565b8484546144ec565b825550505050565b600090565b6145a6614599565b6145b1818484614574565b505050565b5b818110156145d5576145ca60008261459e565b6001810190506145b7565b5050565b601f82111561461a576145eb816144ba565b6145f4846144cf565b81016020851015614603578190505b61461761460f856144cf565b8301826145b6565b50505b505050565b600082821c905092915050565b600061463d6000198460080261461f565b1980831691505092915050565b6000614656838361462c565b9150826002028217905092915050565b61466f8261345e565b67ffffffffffffffff81111561468857614687613573565b5b61469282546143e3565b61469d8282856145d9565b600060209050601f8311600181146146d057600084156146be578287015190505b6146c8858261464a565b865550614730565b601f1984166146de866144ba565b60005b82811015614706578489015182556001820191506020850194506020810190506146e1565b86831015614723578489015161471f601f89168261462c565b8355505b6001600288020188555050505b505050505050565b600081549050614747816143e3565b9050919050565b60008190508160005260206000209050919050565b818103614771575050614849565b61477a82614738565b67ffffffffffffffff81111561479357614792613573565b5b61479d82546143e3565b6147a88282856145d9565b6000601f8311600181146147d757600084156147c5578287015490505b6147cf858261464a565b865550614842565b601f1984166147e58761474e565b96506147f0866144ba565b60005b82811015614818578489015482556001820191506001850194506020810190506147f3565b868310156148355784890154614831601f89168261462c565b8355505b6001600288020188555050505b5050505050505b565b600081905092915050565b60008154614863816143e3565b61486d818661484b565b94506001821660008114614888576001811461489d576148d0565b60ff19831686528115158202860193506148d0565b6148a6856144ba565b60005b838110156148c8578154818901526001820191506020810190506148a9565b838801955050505b50505092915050565b60006148e58284614856565b915081905092915050565b600081546148fd816143e3565b614907818661484b565b9450600182166000811461492257600181146149375761496a565b60ff198316865281151582028601935061496a565b6149408561474e565b60005b8381101561496257815481890152600182019150602081019050614943565b838801955050505b50505092915050565b600061497f82846148f0565b915081905092915050565b60006149958261345e565b61499f818561484b565b93506149af81856020860161347a565b80840191505092915050565b60006149c7828461498a565b915081905092915050565b60006149dd826134ee565b91506149e8836134ee565b9250828201905080821115614a00576149ff614443565b5b9291505056fea264697066735822122011194bd9984987efbd746f1f5608ec6eb800515cfb6811ee001063b3178502f964736f6c63430008150033",
  "linkReferences": {},
  "deployedLinkReferences": {}
}